{
  "_format": "hh-sol-artifact-1",
  "contractName": "PetNFT",
  "sourceName": "contracts/PetNFT.sol",
  "abi": [
    {
      "inputs": [],
      "stateMutability": "payable",
      "type": "constructor"
    },
    {
      "inputs": [
        {
          "internalType": "address",
          "name": "sender",
          "type": "address"
        },
        {
          "internalType": "uint256",
          "name": "tokenId",
          "type": "uint256"
        },
        {
          "internalType": "address",
          "name": "owner",
          "type": "address"
        }
      ],
      "name": "ERC721IncorrectOwner",
      "type": "error"
    },
    {
      "inputs": [
        {
          "internalType": "address",
          "name": "operator",
          "type": "address"
        },
        {
          "internalType": "uint256",
          "name": "tokenId",
          "type": "uint256"
        }
      ],
      "name": "ERC721InsufficientApproval",
      "type": "error"
    },
    {
      "inputs": [
        {
          "internalType": "address",
          "name": "approver",
          "type": "address"
        }
      ],
      "name": "ERC721InvalidApprover",
      "type": "error"
    },
    {
      "inputs": [
        {
          "internalType": "address",
          "name": "operator",
          "type": "address"
        }
      ],
      "name": "ERC721InvalidOperator",
      "type": "error"
    },
    {
      "inputs": [
        {
          "internalType": "address",
          "name": "owner",
          "type": "address"
        }
      ],
      "name": "ERC721InvalidOwner",
      "type": "error"
    },
    {
      "inputs": [
        {
          "internalType": "address",
          "name": "receiver",
          "type": "address"
        }
      ],
      "name": "ERC721InvalidReceiver",
      "type": "error"
    },
    {
      "inputs": [
        {
          "internalType": "address",
          "name": "sender",
          "type": "address"
        }
      ],
      "name": "ERC721InvalidSender",
      "type": "error"
    },
    {
      "inputs": [
        {
          "internalType": "uint256",
          "name": "tokenId",
          "type": "uint256"
        }
      ],
      "name": "ERC721NonexistentToken",
      "type": "error"
    },
    {
      "inputs": [
        {
          "internalType": "address",
          "name": "owner",
          "type": "address"
        }
      ],
      "name": "OwnableInvalidOwner",
      "type": "error"
    },
    {
      "inputs": [
        {
          "internalType": "address",
          "name": "account",
          "type": "address"
        }
      ],
      "name": "OwnableUnauthorizedAccount",
      "type": "error"
    },
    {
      "anonymous": false,
      "inputs": [
        {
          "indexed": true,
          "internalType": "uint256",
          "name": "tokenId",
          "type": "uint256"
        },
        {
          "indexed": false,
          "internalType": "uint256",
          "name": "amount",
          "type": "uint256"
        },
        {
          "indexed": false,
          "internalType": "uint256",
          "name": "level",
          "type": "uint256"
        }
      ],
      "name": "AirdropDistributed",
      "type": "event"
    },
    {
      "anonymous": false,
      "inputs": [
        {
          "indexed": true,
          "internalType": "address",
          "name": "member",
          "type": "address"
        }
      ],
      "name": "AllianceAdded",
      "type": "event"
    },
    {
      "anonymous": false,
      "inputs": [
        {
          "indexed": true,
          "internalType": "address",
          "name": "member",
          "type": "address"
        }
      ],
      "name": "AllianceRemoved",
      "type": "event"
    },
    {
      "anonymous": false,
      "inputs": [
        {
          "indexed": true,
          "internalType": "address",
          "name": "owner",
          "type": "address"
        },
        {
          "indexed": true,
          "internalType": "address",
          "name": "approved",
          "type": "address"
        },
        {
          "indexed": true,
          "internalType": "uint256",
          "name": "tokenId",
          "type": "uint256"
        }
      ],
      "name": "Approval",
      "type": "event"
    },
    {
      "anonymous": false,
      "inputs": [
        {
          "indexed": true,
          "internalType": "address",
          "name": "owner",
          "type": "address"
        },
        {
          "indexed": true,
          "internalType": "address",
          "name": "operator",
          "type": "address"
        },
        {
          "indexed": false,
          "internalType": "bool",
          "name": "approved",
          "type": "bool"
        }
      ],
      "name": "ApprovalForAll",
      "type": "event"
    },
    {
      "anonymous": false,
      "inputs": [
        {
          "indexed": false,
          "internalType": "uint256",
          "name": "_fromTokenId",
          "type": "uint256"
        },
        {
          "indexed": false,
          "internalType": "uint256",
          "name": "_toTokenId",
          "type": "uint256"
        }
      ],
      "name": "BatchMetadataUpdate",
      "type": "event"
    },
    {
      "anonymous": false,
      "inputs": [
        {
          "indexed": true,
          "internalType": "uint256",
          "name": "tokenId",
          "type": "uint256"
        },
        {
          "indexed": false,
          "internalType": "uint256",
          "name": "newLevel",
          "type": "uint256"
        }
      ],
      "name": "LevelUp",
      "type": "event"
    },
    {
      "anonymous": false,
      "inputs": [
        {
          "indexed": false,
          "internalType": "uint256",
          "name": "_tokenId",
          "type": "uint256"
        }
      ],
      "name": "MetadataUpdate",
      "type": "event"
    },
    {
      "anonymous": false,
      "inputs": [
        {
          "indexed": true,
          "internalType": "uint256",
          "name": "tokenId",
          "type": "uint256"
        },
        {
          "indexed": false,
          "internalType": "uint256",
          "name": "amount",
          "type": "uint256"
        },
        {
          "indexed": false,
          "internalType": "uint256",
          "name": "split",
          "type": "uint256"
        },
        {
          "indexed": false,
          "internalType": "uint256",
          "name": "recipients",
          "type": "uint256"
        }
      ],
      "name": "MilestoneRewarded",
      "type": "event"
    },
    {
      "anonymous": false,
      "inputs": [
        {
          "indexed": true,
          "internalType": "address",
          "name": "previousOwner",
          "type": "address"
        },
        {
          "indexed": true,
          "internalType": "address",
          "name": "newOwner",
          "type": "address"
        }
      ],
      "name": "OwnershipTransferred",
      "type": "event"
    },
    {
      "anonymous": false,
      "inputs": [
        {
          "indexed": true,
          "internalType": "uint256",
          "name": "tokenId",
          "type": "uint256"
        },
        {
          "indexed": true,
          "internalType": "address",
          "name": "owner",
          "type": "address"
        },
        {
          "indexed": false,
          "internalType": "string",
          "name": "name",
          "type": "string"
        }
      ],
      "name": "PetMinted",
      "type": "event"
    },
    {
      "anonymous": false,
      "inputs": [
        {
          "indexed": true,
          "internalType": "address",
          "name": "to",
          "type": "address"
        },
        {
          "indexed": true,
          "internalType": "uint256",
          "name": "tokenId",
          "type": "uint256"
        },
        {
          "indexed": false,
          "internalType": "string",
          "name": "name",
          "type": "string"
        },
        {
          "indexed": false,
          "internalType": "uint256",
          "name": "health",
          "type": "uint256"
        },
        {
          "indexed": false,
          "internalType": "uint256",
          "name": "happiness",
          "type": "uint256"
        },
        {
          "indexed": false,
          "internalType": "uint256",
          "name": "level",
          "type": "uint256"
        }
      ],
      "name": "PetMintedDetailed",
      "type": "event"
    },
    {
      "anonymous": false,
      "inputs": [
        {
          "indexed": true,
          "internalType": "uint256",
          "name": "tokenId",
          "type": "uint256"
        },
        {
          "indexed": true,
          "internalType": "address",
          "name": "owner",
          "type": "address"
        },
        {
          "indexed": false,
          "internalType": "uint256",
          "name": "amount",
          "type": "uint256"
        }
      ],
      "name": "PetReleased",
      "type": "event"
    },
    {
      "anonymous": false,
      "inputs": [
        {
          "indexed": true,
          "internalType": "uint256",
          "name": "tokenId",
          "type": "uint256"
        },
        {
          "indexed": false,
          "internalType": "string",
          "name": "trait",
          "type": "string"
        },
        {
          "indexed": true,
          "internalType": "address",
          "name": "upgrader",
          "type": "address"
        }
      ],
      "name": "TraitUpgraded",
      "type": "event"
    },
    {
      "anonymous": false,
      "inputs": [
        {
          "indexed": true,
          "internalType": "address",
          "name": "from",
          "type": "address"
        },
        {
          "indexed": true,
          "internalType": "address",
          "name": "to",
          "type": "address"
        },
        {
          "indexed": true,
          "internalType": "uint256",
          "name": "tokenId",
          "type": "uint256"
        }
      ],
      "name": "Transfer",
      "type": "event"
    },
    {
      "anonymous": false,
      "inputs": [
        {
          "indexed": true,
          "internalType": "uint256",
          "name": "tokenId",
          "type": "uint256"
        },
        {
          "indexed": true,
          "internalType": "address",
          "name": "user",
          "type": "address"
        }
      ],
      "name": "TribeJoined",
      "type": "event"
    },
    {
      "inputs": [],
      "name": "RELEASE_VALUE",
      "outputs": [
        {
          "internalType": "uint256",
          "name": "",
          "type": "uint256"
        }
      ],
      "stateMutability": "view",
      "type": "function"
    },
    {
      "inputs": [],
      "name": "TRIBE_PARTICIPATION_THRESHOLD",
      "outputs": [
        {
          "internalType": "uint256",
          "name": "",
          "type": "uint256"
        }
      ],
      "stateMutability": "view",
      "type": "function"
    },
    {
      "inputs": [
        {
          "internalType": "address",
          "name": "member",
          "type": "address"
        }
      ],
      "name": "addAlliance",
      "outputs": [],
      "stateMutability": "nonpayable",
      "type": "function"
    },
    {
      "inputs": [
        {
          "internalType": "uint256",
          "name": "",
          "type": "uint256"
        }
      ],
      "name": "airdropCount",
      "outputs": [
        {
          "internalType": "uint256",
          "name": "",
          "type": "uint256"
        }
      ],
      "stateMutability": "view",
      "type": "function"
    },
    {
      "inputs": [
        {
          "internalType": "address",
          "name": "",
          "type": "address"
        }
      ],
      "name": "alliances",
      "outputs": [
        {
          "internalType": "bool",
          "name": "",
          "type": "bool"
        }
      ],
      "stateMutability": "view",
      "type": "function"
    },
    {
      "inputs": [
        {
          "internalType": "address",
          "name": "to",
          "type": "address"
        },
        {
          "internalType": "uint256",
          "name": "tokenId",
          "type": "uint256"
        }
      ],
      "name": "approve",
      "outputs": [],
      "stateMutability": "nonpayable",
      "type": "function"
    },
    {
      "inputs": [
        {
          "internalType": "address",
          "name": "owner",
          "type": "address"
        }
      ],
      "name": "balanceOf",
      "outputs": [
        {
          "internalType": "uint256",
          "name": "",
          "type": "uint256"
        }
      ],
      "stateMutability": "view",
      "type": "function"
    },
    {
      "inputs": [],
      "name": "configurePetTokenMinter",
      "outputs": [],
      "stateMutability": "nonpayable",
      "type": "function"
    },
    {
      "inputs": [],
      "name": "fundContract",
      "outputs": [],
      "stateMutability": "payable",
      "type": "function"
    },
    {
      "inputs": [
        {
          "internalType": "uint256",
          "name": "tokenId",
          "type": "uint256"
        }
      ],
      "name": "getApproved",
      "outputs": [
        {
          "internalType": "address",
          "name": "",
          "type": "address"
        }
      ],
      "stateMutability": "view",
      "type": "function"
    },
    {
      "inputs": [
        {
          "internalType": "uint256",
          "name": "tokenId",
          "type": "uint256"
        }
      ],
      "name": "getPetName",
      "outputs": [
        {
          "internalType": "string",
          "name": "",
          "type": "string"
        }
      ],
      "stateMutability": "view",
      "type": "function"
    },
    {
      "inputs": [
        {
          "internalType": "uint256",
          "name": "tokenId",
          "type": "uint256"
        }
      ],
      "name": "getPetStats",
      "outputs": [
        {
          "components": [
            {
              "internalType": "uint256",
              "name": "health",
              "type": "uint256"
            },
            {
              "internalType": "uint256",
              "name": "happiness",
              "type": "uint256"
            },
            {
              "internalType": "uint256",
              "name": "level",
              "type": "uint256"
            }
          ],
          "internalType": "struct PetNFT.PetStats",
          "name": "",
          "type": "tuple"
        }
      ],
      "stateMutability": "view",
      "type": "function"
    },
    {
      "inputs": [
        {
          "internalType": "uint256",
          "name": "tokenId",
          "type": "uint256"
        }
      ],
      "name": "getPetTraits",
      "outputs": [
        {
          "internalType": "string[]",
          "name": "",
          "type": "string[]"
        }
      ],
      "stateMutability": "view",
      "type": "function"
    },
    {
      "inputs": [
        {
          "internalType": "address",
          "name": "owner",
          "type": "address"
        },
        {
          "internalType": "address",
          "name": "operator",
          "type": "address"
        }
      ],
      "name": "isApprovedForAll",
      "outputs": [
        {
          "internalType": "bool",
          "name": "",
          "type": "bool"
        }
      ],
      "stateMutability": "view",
      "type": "function"
    },
    {
      "inputs": [
        {
          "internalType": "uint256",
          "name": "tokenId",
          "type": "uint256"
        },
        {
          "internalType": "address",
          "name": "member",
          "type": "address"
        }
      ],
      "name": "isTribeMember",
      "outputs": [
        {
          "internalType": "bool",
          "name": "",
          "type": "bool"
        }
      ],
      "stateMutability": "view",
      "type": "function"
    },
    {
      "inputs": [
        {
          "internalType": "uint256",
          "name": "tokenId",
          "type": "uint256"
        }
      ],
      "name": "levelUp",
      "outputs": [],
      "stateMutability": "nonpayable",
      "type": "function"
    },
    {
      "inputs": [
        {
          "internalType": "address",
          "name": "to",
          "type": "address"
        },
        {
          "internalType": "string",
          "name": "name",
          "type": "string"
        },
        {
          "internalType": "uint256",
          "name": "health",
          "type": "uint256"
        },
        {
          "internalType": "uint256",
          "name": "happiness",
          "type": "uint256"
        },
        {
          "internalType": "uint256",
          "name": "level",
          "type": "uint256"
        }
      ],
      "name": "mintPet",
      "outputs": [],
      "stateMutability": "nonpayable",
      "type": "function"
    },
    {
      "inputs": [],
      "name": "name",
      "outputs": [
        {
          "internalType": "string",
          "name": "",
          "type": "string"
        }
      ],
      "stateMutability": "view",
      "type": "function"
    },
    {
      "inputs": [
        {
          "internalType": "uint256",
          "name": "tokenId",
          "type": "uint256"
        },
        {
          "internalType": "uint256",
          "name": "amount",
          "type": "uint256"
        }
      ],
      "name": "onMilestone",
      "outputs": [],
      "stateMutability": "nonpayable",
      "type": "function"
    },
    {
      "inputs": [],
      "name": "owner",
      "outputs": [
        {
          "internalType": "address",
          "name": "",
          "type": "address"
        }
      ],
      "stateMutability": "view",
      "type": "function"
    },
    {
      "inputs": [
        {
          "internalType": "uint256",
          "name": "tokenId",
          "type": "uint256"
        }
      ],
      "name": "ownerOf",
      "outputs": [
        {
          "internalType": "address",
          "name": "",
          "type": "address"
        }
      ],
      "stateMutability": "view",
      "type": "function"
    },
    {
      "inputs": [
        {
          "internalType": "uint256",
          "name": "",
          "type": "uint256"
        }
      ],
      "name": "petNames",
      "outputs": [
        {
          "internalType": "string",
          "name": "",
          "type": "string"
        }
      ],
      "stateMutability": "view",
      "type": "function"
    },
    {
      "inputs": [
        {
          "internalType": "uint256",
          "name": "",
          "type": "uint256"
        }
      ],
      "name": "petStats",
      "outputs": [
        {
          "internalType": "uint256",
          "name": "health",
          "type": "uint256"
        },
        {
          "internalType": "uint256",
          "name": "happiness",
          "type": "uint256"
        },
        {
          "internalType": "uint256",
          "name": "level",
          "type": "uint256"
        }
      ],
      "stateMutability": "view",
      "type": "function"
    },
    {
      "inputs": [],
      "name": "petToken",
      "outputs": [
        {
          "internalType": "address",
          "name": "",
          "type": "address"
        }
      ],
      "stateMutability": "view",
      "type": "function"
    },
    {
      "inputs": [
        {
          "internalType": "uint256",
          "name": "",
          "type": "uint256"
        },
        {
          "internalType": "uint256",
          "name": "",
          "type": "uint256"
        }
      ],
      "name": "petTraits",
      "outputs": [
        {
          "internalType": "string",
          "name": "",
          "type": "string"
        }
      ],
      "stateMutability": "view",
      "type": "function"
    },
    {
      "inputs": [
        {
          "internalType": "address",
          "name": "member",
          "type": "address"
        }
      ],
      "name": "removeAlliance",
      "outputs": [],
      "stateMutability": "nonpayable",
      "type": "function"
    },
    {
      "inputs": [],
      "name": "renounceOwnership",
      "outputs": [],
      "stateMutability": "nonpayable",
      "type": "function"
    },
    {
      "inputs": [
        {
          "internalType": "address",
          "name": "from",
          "type": "address"
        },
        {
          "internalType": "address",
          "name": "to",
          "type": "address"
        },
        {
          "internalType": "uint256",
          "name": "tokenId",
          "type": "uint256"
        }
      ],
      "name": "safeTransferFrom",
      "outputs": [],
      "stateMutability": "nonpayable",
      "type": "function"
    },
    {
      "inputs": [
        {
          "internalType": "address",
          "name": "from",
          "type": "address"
        },
        {
          "internalType": "address",
          "name": "to",
          "type": "address"
        },
        {
          "internalType": "uint256",
          "name": "tokenId",
          "type": "uint256"
        },
        {
          "internalType": "bytes",
          "name": "data",
          "type": "bytes"
        }
      ],
      "name": "safeTransferFrom",
      "outputs": [],
      "stateMutability": "nonpayable",
      "type": "function"
    },
    {
      "inputs": [
        {
          "internalType": "uint256",
          "name": "",
          "type": "uint256"
        }
      ],
      "name": "sellEnabled",
      "outputs": [
        {
          "internalType": "bool",
          "name": "",
          "type": "bool"
        }
      ],
      "stateMutability": "view",
      "type": "function"
    },
    {
      "inputs": [
        {
          "internalType": "address",
          "name": "operator",
          "type": "address"
        },
        {
          "internalType": "bool",
          "name": "approved",
          "type": "bool"
        }
      ],
      "name": "setApprovalForAll",
      "outputs": [],
      "stateMutability": "nonpayable",
      "type": "function"
    },
    {
      "inputs": [
        {
          "internalType": "address",
          "name": "token",
          "type": "address"
        }
      ],
      "name": "setPetToken",
      "outputs": [],
      "stateMutability": "nonpayable",
      "type": "function"
    },
    {
      "inputs": [
        {
          "internalType": "bytes4",
          "name": "interfaceId",
          "type": "bytes4"
        }
      ],
      "name": "supportsInterface",
      "outputs": [
        {
          "internalType": "bool",
          "name": "",
          "type": "bool"
        }
      ],
      "stateMutability": "view",
      "type": "function"
    },
    {
      "inputs": [],
      "name": "symbol",
      "outputs": [
        {
          "internalType": "string",
          "name": "",
          "type": "string"
        }
      ],
      "stateMutability": "view",
      "type": "function"
    },
    {
      "inputs": [
        {
          "internalType": "uint256",
          "name": "tokenId",
          "type": "uint256"
        }
      ],
      "name": "tokenURI",
      "outputs": [
        {
          "internalType": "string",
          "name": "",
          "type": "string"
        }
      ],
      "stateMutability": "view",
      "type": "function"
    },
    {
      "inputs": [],
      "name": "totalSupply",
      "outputs": [
        {
          "internalType": "uint256",
          "name": "",
          "type": "uint256"
        }
      ],
      "stateMutability": "view",
      "type": "function"
    },
    {
      "inputs": [
        {
          "internalType": "address",
          "name": "from",
          "type": "address"
        },
        {
          "internalType": "address",
          "name": "to",
          "type": "address"
        },
        {
          "internalType": "uint256",
          "name": "tokenId",
          "type": "uint256"
        }
      ],
      "name": "transferFrom",
      "outputs": [],
      "stateMutability": "nonpayable",
      "type": "function"
    },
    {
      "inputs": [
        {
          "internalType": "address",
          "name": "newOwner",
          "type": "address"
        }
      ],
      "name": "transferOwnership",
      "outputs": [],
      "stateMutability": "nonpayable",
      "type": "function"
    },
    {
      "inputs": [
        {
          "internalType": "uint256",
          "name": "tokenId",
          "type": "uint256"
        }
      ],
      "name": "tribeJoin",
      "outputs": [],
      "stateMutability": "nonpayable",
      "type": "function"
    },
    {
      "inputs": [
        {
          "internalType": "uint256",
          "name": "",
          "type": "uint256"
        },
        {
          "internalType": "uint256",
          "name": "",
          "type": "uint256"
        }
      ],
      "name": "tribeMembers",
      "outputs": [
        {
          "internalType": "address",
          "name": "",
          "type": "address"
        }
      ],
      "stateMutability": "view",
      "type": "function"
    },
    {
      "inputs": [
        {
          "internalType": "uint256",
          "name": "tokenId",
          "type": "uint256"
        },
        {
          "internalType": "string",
          "name": "trait",
          "type": "string"
        }
      ],
      "name": "upgradeTrait",
      "outputs": [],
      "stateMutability": "nonpayable",
      "type": "function"
    },
    {
      "inputs": [],
      "name": "withdrawETH",
      "outputs": [],
      "stateMutability": "nonpayable",
      "type": "function"
    }
  ],
  "bytecode": "0x6080604052336040518060400160405280600781526020017f50657450616c73000000000000000000000000000000000000000000000000008152506040518060400160405280600481526020017f5050455400000000000000000000000000000000000000000000000000000000815250816000908162000082919062000464565b50806001908162000094919062000464565b505050600073ffffffffffffffffffffffffffffffffffffffff168173ffffffffffffffffffffffffffffffffffffffff16036200010c5760006040517f1e4fbdf700000000000000000000000000000000000000000000000000000000815260040162000103919062000590565b60405180910390fd5b6200011d816200012460201b60201c565b50620005ad565b6000600760009054906101000a900473ffffffffffffffffffffffffffffffffffffffff16905081600760006101000a81548173ffffffffffffffffffffffffffffffffffffffff021916908373ffffffffffffffffffffffffffffffffffffffff1602179055508173ffffffffffffffffffffffffffffffffffffffff168173ffffffffffffffffffffffffffffffffffffffff167f8be0079c531659141344cd1fd0a4f28419497f9722a3daafe3b4186f6b6457e060405160405180910390a35050565b600081519050919050565b7f4e487b7100000000000000000000000000000000000000000000000000000000600052604160045260246000fd5b7f4e487b7100000000000000000000000000000000000000000000000000000000600052602260045260246000fd5b600060028204905060018216806200026c57607f821691505b60208210810362000282576200028162000224565b5b50919050565b60008190508160005260206000209050919050565b60006020601f8301049050919050565b600082821b905092915050565b600060088302620002ec7fffffffffffffffffffffffffffffffffffffffffffffffffffffffffffffffff82620002ad565b620002f88683620002ad565b95508019841693508086168417925050509392505050565b6000819050919050565b6000819050919050565b6000620003456200033f620003398462000310565b6200031a565b62000310565b9050919050565b6000819050919050565b620003618362000324565b6200037962000370826200034c565b848454620002ba565b825550505050565b600090565b6200039062000381565b6200039d81848462000356565b505050565b5b81811015620003c557620003b960008262000386565b600181019050620003a3565b5050565b601f8211156200041457620003de8162000288565b620003e9846200029d565b81016020851015620003f9578190505b6200041162000408856200029d565b830182620003a2565b50505b505050565b600082821c905092915050565b6000620004396000198460080262000419565b1980831691505092915050565b600062000454838362000426565b9150826002028217905092915050565b6200046f82620001ea565b67ffffffffffffffff8111156200048b576200048a620001f5565b5b62000497825462000253565b620004a4828285620003c9565b600060209050601f831160018114620004dc5760008415620004c7578287015190505b620004d3858262000446565b86555062000543565b601f198416620004ec8662000288565b60005b828110156200051657848901518255600182019150602085019450602081019050620004ef565b8683101562000536578489015162000532601f89168262000426565b8355505b6001600288020188555050505b505050505050565b600073ffffffffffffffffffffffffffffffffffffffff82169050919050565b600062000578826200054b565b9050919050565b6200058a816200056b565b82525050565b6000602082019050620005a760008301846200057f565b92915050565b61569c80620005bd6000396000f3fe6080604052600436106102515760003560e01c8063715018a611610139578063b88d4fde116100b6578063e086e5ec1161007a578063e086e5ec14610913578063e985e9c51461092a578063eb3b4ff914610967578063ed0ce381146109a4578063ef872a47146109cd578063f2fde38b146109f657610251565b8063b88d4fde1461083b578063bd097e2114610864578063be4918941461086e578063bfefde1e146108ab578063c87b56dd146108d657610251565b8063962da441116100fd578063962da44114610744578063a22cb4651461076f578063aac669e014610798578063b55ff6c3146107c1578063b827b247146107fe57610251565b8063715018a6146106715780637411e588146106885780638bb775bd146106b15780638da5cb5b146106ee57806395d89b411461071957610251565b8063446bfa12116101d2578063591c9c7b11610196578063591c9c7b146105635780635a49935d1461058c5780635bab2c12146105a35780635cb40c27146105ce5780636352211e146105f757806370a082311461063457610251565b8063446bfa1214610446578063448abb5414610483578063473fa1b4146104c05780634dd89cf7146104fd57806352f953eb1461053a57610251565b806318160ddd1161021957806318160ddd1461034d5780631c28f4791461037857806323b872dd146103b757806331d25fa6146103e057806342842e0e1461041d57610251565b806301ffc9a71461025657806306fdde0314610293578063081812fc146102be578063095ea7b3146102fb5780630ce90ec214610324575b600080fd5b34801561026257600080fd5b5061027d60048036038101906102789190613d60565b610a1f565b60405161028a9190613da8565b60405180910390f35b34801561029f57600080fd5b506102a8610a31565b6040516102b59190613e53565b60405180910390f35b3480156102ca57600080fd5b506102e560048036038101906102e09190613eab565b610ac3565b6040516102f29190613f19565b60405180910390f35b34801561030757600080fd5b50610322600480360381019061031d9190613f60565b610adf565b005b34801561033057600080fd5b5061034b60048036038101906103469190613eab565b610af5565b005b34801561035957600080fd5b50610362610f08565b60405161036f9190613faf565b60405180910390f35b34801561038457600080fd5b5061039f600480360381019061039a9190613eab565b610f12565b6040516103ae93929190613fca565b60405180910390f35b3480156103c357600080fd5b506103de60048036038101906103d99190614001565b610f3c565b005b3480156103ec57600080fd5b5061040760048036038101906104029190613eab565b61103e565b6040516104149190614160565b60405180910390f35b34801561042957600080fd5b50610444600480360381019061043f9190614001565b6111a1565b005b34801561045257600080fd5b5061046d60048036038101906104689190613eab565b6111c1565b60405161047a9190613e53565b60405180910390f35b34801561048f57600080fd5b506104aa60048036038101906104a59190614182565b611261565b6040516104b79190613da8565b60405180910390f35b3480156104cc57600080fd5b506104e760048036038101906104e291906141af565b611281565b6040516104f49190613f19565b60405180910390f35b34801561050957600080fd5b50610524600480360381019061051f91906141af565b6112cf565b6040516105319190613e53565b60405180910390f35b34801561054657600080fd5b50610561600480360381019061055c9190614182565b611388565b005b34801561056f57600080fd5b5061058a60048036038101906105859190614324565b61142e565b005b34801561059857600080fd5b506105a1611608565b005b3480156105af57600080fd5b506105b86116a3565b6040516105c59190613faf565b60405180910390f35b3480156105da57600080fd5b506105f560048036038101906105f09190614182565b6116ae565b005b34801561060357600080fd5b5061061e60048036038101906106199190613eab565b6116fa565b60405161062b9190613f19565b60405180910390f35b34801561064057600080fd5b5061065b60048036038101906106569190614182565b61170c565b6040516106689190613faf565b60405180910390f35b34801561067d57600080fd5b506106866117c6565b005b34801561069457600080fd5b506106af60048036038101906106aa91906141af565b6117da565b005b3480156106bd57600080fd5b506106d860048036038101906106d39190613eab565b611bc7565b6040516106e59190613faf565b60405180910390f35b3480156106fa57600080fd5b50610703611bdf565b6040516107109190613f19565b60405180910390f35b34801561072557600080fd5b5061072e611c09565b60405161073b9190613e53565b60405180910390f35b34801561075057600080fd5b50610759611c9b565b6040516107669190613f19565b60405180910390f35b34801561077b57600080fd5b50610796600480360381019061079191906143ac565b611cc1565b005b3480156107a457600080fd5b506107bf60048036038101906107ba9190614182565b611cd7565b005b3480156107cd57600080fd5b506107e860048036038101906107e39190613eab565b611d7d565b6040516107f59190613e53565b60405180910390f35b34801561080a57600080fd5b5061082560048036038101906108209190613eab565b611e22565b6040516108329190613da8565b60405180910390f35b34801561084757600080fd5b50610862600480360381019061085d919061448d565b611e42565b005b61086c611e67565b005b34801561087a57600080fd5b5061089560048036038101906108909190613eab565b611e71565b6040516108a29190614561565b60405180910390f35b3480156108b757600080fd5b506108c0611f33565b6040516108cd9190613faf565b60405180910390f35b3480156108e257600080fd5b506108fd60048036038101906108f89190613eab565b611f38565b60405161090a9190613e53565b60405180910390f35b34801561091f57600080fd5b50610928611f4a565b005b34801561093657600080fd5b50610951600480360381019061094c919061457c565b612051565b60405161095e9190613da8565b60405180910390f35b34801561097357600080fd5b5061098e600480360381019061098991906145bc565b6120e5565b60405161099b9190613da8565b60405180910390f35b3480156109b057600080fd5b506109cb60048036038101906109c69190613eab565b612206565b005b3480156109d957600080fd5b506109f460048036038101906109ef91906145fc565b612453565b005b348015610a0257600080fd5b50610a1d6004803603810190610a189190614182565b6125cf565b005b6000610a2a82612655565b9050919050565b606060008054610a40906146c2565b80601f0160208091040260200160405190810160405280929190818152602001828054610a6c906146c2565b8015610ab95780601f10610a8e57610100808354040283529160200191610ab9565b820191906000526020600020905b815481529060010190602001808311610a9c57829003601f168201915b5050505050905090565b6000610ace826126b6565b50610ad88261273e565b9050919050565b610af18282610aec61277b565b612783565b5050565b80600073ffffffffffffffffffffffffffffffffffffffff16610b17826116fa565b73ffffffffffffffffffffffffffffffffffffffff1603610b6d576040517f08c379a0000000000000000000000000000000000000000000000000000000008152600401610b649061473f565b60405180910390fd5b3373ffffffffffffffffffffffffffffffffffffffff16610b8d826116fa565b73ffffffffffffffffffffffffffffffffffffffff161480610bb55750610bb481336120e5565b5b610bf4576040517f08c379a0000000000000000000000000000000000000000000000000000000008152600401610beb906147d1565b60405180910390fd5b81600073ffffffffffffffffffffffffffffffffffffffff16610c16826116fa565b73ffffffffffffffffffffffffffffffffffffffff1603610c6c576040517f08c379a0000000000000000000000000000000000000000000000000000000008152600401610c639061473f565b60405180910390fd5b600060096000838152602001908152602001600020604051806060016040529081600082015481526020016001820154815260200160028201548152505090506032816000015111610cf3576040517f08c379a0000000000000000000000000000000000000000000000000000000008152600401610cea9061483d565b60405180910390fd5b60006009600086815260200190815260200160002090506050816000015411610d51576040517f08c379a0000000000000000000000000000000000000000000000000000000008152600401610d48906148a9565b60405180910390fd5b806002016000815480929190610d66906148f8565b9190505550847f3b7ca85b5e3d1ebb3a81e8d9e27bfeb9ef2f447026c115421132a20b0733b73f8260020154604051610d9f9190613faf565b60405180910390a2610db085612795565b600a816002015403610f01576001600e600087815260200190815260200160002060006101000a81548160ff0219169083151502179055506000610df3866116fa565b905060008173ffffffffffffffffffffffffffffffffffffffff16662386f26fc10000604051610e2290614971565b60006040518083038185875af1925050503d8060008114610e5f576040519150601f19603f3d011682016040523d82523d6000602084013e610e64565b606091505b5050905080610ea8576040517f08c379a0000000000000000000000000000000000000000000000000000000008152600401610e9f906149d2565b60405180910390fd5b8173ffffffffffffffffffffffffffffffffffffffff16877fceea8eb0331d82962f383ef6d4ce492bad130f7488d3f1a43b73e1097029a6b1662386f26fc10000604051610ef69190613faf565b60405180910390a350505b5050505050565b6000600854905090565b60096020528060005260406000206000915090508060000154908060010154908060020154905083565b600073ffffffffffffffffffffffffffffffffffffffff168273ffffffffffffffffffffffffffffffffffffffff1603610fae5760006040517f64a0ae92000000000000000000000000000000000000000000000000000000008152600401610fa59190613f19565b60405180910390fd5b6000610fc28383610fbd61277b565b612ace565b90508373ffffffffffffffffffffffffffffffffffffffff168173ffffffffffffffffffffffffffffffffffffffff1614611038578382826040517f64283d7b00000000000000000000000000000000000000000000000000000000815260040161102f939291906149f2565b60405180910390fd5b50505050565b6060600073ffffffffffffffffffffffffffffffffffffffff16611061836116fa565b73ffffffffffffffffffffffffffffffffffffffff16036110b7576040517f08c379a00000000000000000000000000000000000000000000000000000000081526004016110ae9061473f565b60405180910390fd5b600b6000838152602001908152602001600020805480602002602001604051908101604052809291908181526020016000905b82821015611196578382906000526020600020018054611109906146c2565b80601f0160208091040260200160405190810160405280929190818152602001828054611135906146c2565b80156111825780601f1061115757610100808354040283529160200191611182565b820191906000526020600020905b81548152906001019060200180831161116557829003601f168201915b5050505050815260200190600101906110ea565b505050509050919050565b6111bc83838360405180602001604052806000815250611e42565b505050565b600d60205280600052604060002060009150905080546111e0906146c2565b80601f016020809104026020016040519081016040528092919081815260200182805461120c906146c2565b80156112595780601f1061122e57610100808354040283529160200191611259565b820191906000526020600020905b81548152906001019060200180831161123c57829003601f168201915b505050505081565b600a6020528060005260406000206000915054906101000a900460ff1681565b600c602052816000526040600020818154811061129d57600080fd5b906000526020600020016000915091509054906101000a900473ffffffffffffffffffffffffffffffffffffffff1681565b600b60205281600052604060002081815481106112eb57600080fd5b90600052602060002001600091509150508054611307906146c2565b80601f0160208091040260200160405190810160405280929190818152602001828054611333906146c2565b80156113805780601f1061135557610100808354040283529160200191611380565b820191906000526020600020905b81548152906001019060200180831161136357829003601f168201915b505050505081565b611390612ce8565b6000600a60008373ffffffffffffffffffffffffffffffffffffffff1673ffffffffffffffffffffffffffffffffffffffff16815260200190815260200160002060006101000a81548160ff0219169083151502179055508073ffffffffffffffffffffffffffffffffffffffff167f8a729e63eaffd48347146e8c9bee5f75a32eb2bdc582e67a967cfb09cf0410fa60405160405180910390a250565b600073ffffffffffffffffffffffffffffffffffffffff1661144f836116fa565b73ffffffffffffffffffffffffffffffffffffffff16036114a5576040517f08c379a000000000000000000000000000000000000000000000000000000000815260040161149c9061473f565b60405180910390fd5b3373ffffffffffffffffffffffffffffffffffffffff166114c5836116fa565b73ffffffffffffffffffffffffffffffffffffffff1614806115305750600a60003373ffffffffffffffffffffffffffffffffffffffff1673ffffffffffffffffffffffffffffffffffffffff16815260200190815260200160002060009054906101000a900460ff165b61156f576040517f08c379a000000000000000000000000000000000000000000000000000000000815260040161156690614a9b565b60405180910390fd5b600b6000838152602001908152602001600020819080600181540180825580915050600190039060005260206000200160009091909190915090816115b49190614c67565b503373ffffffffffffffffffffffffffffffffffffffff16827f528e6b14875b49bd3f2f3fa02016125376b0c33fcfc97ca5ba4e2c5e56f719e5836040516115fc9190613e53565b60405180910390a35050565b611610612ce8565b600073ffffffffffffffffffffffffffffffffffffffff16601060009054906101000a900473ffffffffffffffffffffffffffffffffffffffff1673ffffffffffffffffffffffffffffffffffffffff16036116a1576040517f08c379a000000000000000000000000000000000000000000000000000000000815260040161169890614d85565b60405180910390fd5b565b662386f26fc1000081565b6116b6612ce8565b80601060006101000a81548173ffffffffffffffffffffffffffffffffffffffff021916908373ffffffffffffffffffffffffffffffffffffffff16021790555050565b6000611705826126b6565b9050919050565b60008073ffffffffffffffffffffffffffffffffffffffff168273ffffffffffffffffffffffffffffffffffffffff160361177f5760006040517f89c62b640000000000000000000000000000000000000000000000000000000081526004016117769190613f19565b60405180910390fd5b600360008373ffffffffffffffffffffffffffffffffffffffff1673ffffffffffffffffffffffffffffffffffffffff168152602001908152602001600020549050919050565b6117ce612ce8565b6117d86000612d6f565b565b600073ffffffffffffffffffffffffffffffffffffffff166117fb836116fa565b73ffffffffffffffffffffffffffffffffffffffff1603611851576040517f08c379a00000000000000000000000000000000000000000000000000000000081526004016118489061473f565b60405180910390fd5b6005600960008481526020019081526020016000206002015410156118ab576040517f08c379a00000000000000000000000000000000000000000000000000000000081526004016118a290614df1565b60405180910390fd5b600081116118ee576040517f08c379a00000000000000000000000000000000000000000000000000000000081526004016118e590614e5d565b60405180910390fd5b6000600c60008481526020019081526020016000209050600081805490501161194c576040517f08c379a000000000000000000000000000000000000000000000000000000000815260040161194390614ec9565b60405180910390fd5b600073ffffffffffffffffffffffffffffffffffffffff16601060009054906101000a900473ffffffffffffffffffffffffffffffffffffffff1673ffffffffffffffffffffffffffffffffffffffff16036119dd576040517f08c379a00000000000000000000000000000000000000000000000000000000081526004016119d490614f35565b60405180910390fd5b60008180549050836119ef9190614f84565b905060008111611a34576040517f08c379a0000000000000000000000000000000000000000000000000000000008152600401611a2b90615001565b60405180910390fd5b6000601060009054906101000a900473ffffffffffffffffffffffffffffffffffffffff16905060005b8380549050811015611b7f5760008273ffffffffffffffffffffffffffffffffffffffff166323b872dd33878581548110611a9c57611a9b615021565b5b9060005260206000200160009054906101000a900473ffffffffffffffffffffffffffffffffffffffff16876040518463ffffffff1660e01b8152600401611ae693929190615050565b6020604051808303816000875af1158015611b05573d6000803e3d6000fd5b505050506040513d601f19601f82011682018060405250810190611b29919061509c565b905080611b6b576040517f08c379a0000000000000000000000000000000000000000000000000000000008152600401611b6290615115565b60405180910390fd5b508080611b77906148f8565b915050611a5e565b50847f44554b3adc8884f2fd1b210f661902b032b375035234327779bbf48ea200954c85848680549050604051611bb893929190613fca565b60405180910390a25050505050565b600f6020528060005260406000206000915090505481565b6000600760009054906101000a900473ffffffffffffffffffffffffffffffffffffffff16905090565b606060018054611c18906146c2565b80601f0160208091040260200160405190810160405280929190818152602001828054611c44906146c2565b8015611c915780601f10611c6657610100808354040283529160200191611c91565b820191906000526020600020905b815481529060010190602001808311611c7457829003601f168201915b5050505050905090565b601060009054906101000a900473ffffffffffffffffffffffffffffffffffffffff1681565b611cd3611ccc61277b565b8383612e35565b5050565b611cdf612ce8565b6001600a60008373ffffffffffffffffffffffffffffffffffffffff1673ffffffffffffffffffffffffffffffffffffffff16815260200190815260200160002060006101000a81548160ff0219169083151502179055508073ffffffffffffffffffffffffffffffffffffffff167f979e65e73c6b288b4d8da9e0dfd3285cc723de43757d7165c2a293aa39304f5660405160405180910390a250565b6060600d60008381526020019081526020016000208054611d9d906146c2565b80601f0160208091040260200160405190810160405280929190818152602001828054611dc9906146c2565b8015611e165780601f10611deb57610100808354040283529160200191611e16565b820191906000526020600020905b815481529060010190602001808311611df957829003601f168201915b50505050509050919050565b600e6020528060005260406000206000915054906101000a900460ff1681565b611e4d848484610f3c565b611e61611e5861277b565b85858585612fa4565b50505050565b611e6f612ce8565b565b611e79613cd3565b600073ffffffffffffffffffffffffffffffffffffffff16611e9a836116fa565b73ffffffffffffffffffffffffffffffffffffffff1603611ef0576040517f08c379a0000000000000000000000000000000000000000000000000000000008152600401611ee79061473f565b60405180910390fd5b6009600083815260200190815260200160002060405180606001604052908160008201548152602001600182015481526020016002820154815250509050919050565b603281565b6060611f4382613155565b9050919050565b611f52612ce8565b600047905060008111611f9a576040517f08c379a0000000000000000000000000000000000000000000000000000000008152600401611f9190615181565b60405180910390fd5b6000611fa4611bdf565b73ffffffffffffffffffffffffffffffffffffffff1682604051611fc790614971565b60006040518083038185875af1925050503d8060008114612004576040519150601f19603f3d011682016040523d82523d6000602084013e612009565b606091505b505090508061204d576040517f08c379a0000000000000000000000000000000000000000000000000000000008152600401612044906151ed565b60405180910390fd5b5050565b6000600560008473ffffffffffffffffffffffffffffffffffffffff1673ffffffffffffffffffffffffffffffffffffffff16815260200190815260200160002060008373ffffffffffffffffffffffffffffffffffffffff1673ffffffffffffffffffffffffffffffffffffffff16815260200190815260200160002060009054906101000a900460ff16905092915050565b600080600c600085815260200190815260200160002080548060200260200160405190810160405280929190818152602001828054801561217b57602002820191906000526020600020905b8160009054906101000a900473ffffffffffffffffffffffffffffffffffffffff1673ffffffffffffffffffffffffffffffffffffffff1681526020019060010190808311612131575b5050505050905060005b81518110156121f9578373ffffffffffffffffffffffffffffffffffffffff168282815181106121b8576121b7615021565b5b602002602001015173ffffffffffffffffffffffffffffffffffffffff16036121e657600192505050612200565b80806121f1906148f8565b915050612185565b5060009150505b92915050565b600073ffffffffffffffffffffffffffffffffffffffff16612227826116fa565b73ffffffffffffffffffffffffffffffffffffffff160361227d576040517f08c379a00000000000000000000000000000000000000000000000000000000081526004016122749061473f565b60405180910390fd5b6000600c60008381526020019081526020016000209050600a8180549050106122db576040517f08c379a00000000000000000000000000000000000000000000000000000000081526004016122d290615259565b60405180910390fd5b60005b81805490508110156123a8573373ffffffffffffffffffffffffffffffffffffffff1682828154811061231457612313615021565b5b9060005260206000200160009054906101000a900473ffffffffffffffffffffffffffffffffffffffff1673ffffffffffffffffffffffffffffffffffffffff1603612395576040517f08c379a000000000000000000000000000000000000000000000000000000000815260040161238c906152c5565b60405180910390fd5b80806123a0906148f8565b9150506122de565b5080339080600181540180825580915050600190039060005260206000200160009091909190916101000a81548173ffffffffffffffffffffffffffffffffffffffff021916908373ffffffffffffffffffffffffffffffffffffffff1602179055503373ffffffffffffffffffffffffffffffffffffffff16827fc65ecd39c686a638a7fa3d99fff86ed527d276fe831cf08eb5d6b91677c0c57b60405160405180910390a35050565b60086000815480929190612466906148f8565b9190505550600060085490506040518060600160405280858152602001848152602001838152506009600083815260200190815260200160002060008201518160000155602082015181600101556040820151816002015590505084600d600083815260200190815260200160002090816124e19190614c67565b506124ec8682613268565b60006124f782613286565b60405160200161250791906153b9565b604051602081830303815290604052905061252282826133e6565b8673ffffffffffffffffffffffffffffffffffffffff16827f4639c237376208a6488772ae52ae9263188bd41b4cd0362b4b921b6a02f45c19886040516125699190613e53565b60405180910390a3818773ffffffffffffffffffffffffffffffffffffffff167f1e8813e0390fff060c46ce634a1b8b83b719bfc51e985977cb1d7e6a0047b8cd888888886040516125be94939291906153e6565b60405180910390a350505050505050565b6125d7612ce8565b600073ffffffffffffffffffffffffffffffffffffffff168173ffffffffffffffffffffffffffffffffffffffff16036126495760006040517f1e4fbdf70000000000000000000000000000000000000000000000000000000081526004016126409190613f19565b60405180910390fd5b61265281612d6f565b50565b6000634906490660e01b7bffffffffffffffffffffffffffffffffffffffffffffffffffffffff1916827bffffffffffffffffffffffffffffffffffffffffffffffffffffffff191614806126af57506126ae82613442565b5b9050919050565b6000806126c283613524565b9050600073ffffffffffffffffffffffffffffffffffffffff168173ffffffffffffffffffffffffffffffffffffffff160361273557826040517f7e27328900000000000000000000000000000000000000000000000000000000815260040161272c9190613faf565b60405180910390fd5b80915050919050565b60006004600083815260200190815260200160002060009054906101000a900473ffffffffffffffffffffffffffffffffffffffff169050919050565b600033905090565b6127908383836001613561565b505050565b600073ffffffffffffffffffffffffffffffffffffffff16601060009054906101000a900473ffffffffffffffffffffffffffffffffffffffff1673ffffffffffffffffffffffffffffffffffffffff1603612826576040517f08c379a000000000000000000000000000000000000000000000000000000000815260040161281d90614d85565b60405180910390fd5b6000600c60008381526020019081526020016000208054806020026020016040519081016040528092919081815260200182805480156128bb57602002820191906000526020600020905b8160009054906101000a900473ffffffffffffffffffffffffffffffffffffffff1673ffffffffffffffffffffffffffffffffffffffff1681526020019060010190808311612871575b5050505050905060008151036128d15750612acb565b600060096000848152602001908152602001600020604051806060016040529081600082015481526020016001820154815260200160028201548152505090506000600582604001510361292f57674563918244f400009050612980565b600a82604001510361294b57678ac7230489e80000905061297f565b600e600085815260200190815260200160002060009054906101000a900460ff161561297e576801158e460913d0000090505b5b5b6000811115612ac7576000601060009054906101000a900473ffffffffffffffffffffffffffffffffffffffff16905060005b8451811015612a50578173ffffffffffffffffffffffffffffffffffffffff166340c10f198683815181106129eb576129ea615021565b5b6020026020010151856040518363ffffffff1660e01b8152600401612a11929190615432565b600060405180830381600087803b158015612a2b57600080fd5b505af1925050508015612a3c575060015b508080612a48906148f8565b9150506129b3565b50835182612a5e919061545b565b600f60008781526020019081526020016000206000828254612a80919061549d565b92505081905550847f7641356546445a61f1453e1257b55ea02cdd357eb262a2fe7fe8d6d670287d6c838560400151604051612abd9291906154d1565b60405180910390a2505b5050505b50565b600080612ada84613524565b9050600073ffffffffffffffffffffffffffffffffffffffff168373ffffffffffffffffffffffffffffffffffffffff1614612b1c57612b1b818486613726565b5b600073ffffffffffffffffffffffffffffffffffffffff168173ffffffffffffffffffffffffffffffffffffffff1614612bad57612b5e600085600080613561565b6001600360008373ffffffffffffffffffffffffffffffffffffffff1673ffffffffffffffffffffffffffffffffffffffff168152602001908152602001600020600082825403925050819055505b600073ffffffffffffffffffffffffffffffffffffffff168573ffffffffffffffffffffffffffffffffffffffff1614612c30576001600360008773ffffffffffffffffffffffffffffffffffffffff1673ffffffffffffffffffffffffffffffffffffffff168152602001908152602001600020600082825401925050819055505b846002600086815260200190815260200160002060006101000a81548173ffffffffffffffffffffffffffffffffffffffff021916908373ffffffffffffffffffffffffffffffffffffffff160217905550838573ffffffffffffffffffffffffffffffffffffffff168273ffffffffffffffffffffffffffffffffffffffff167fddf252ad1be2c89b69c2b068fc378daa952ba7f163c4a11628f55a4df523b3ef60405160405180910390a4809150509392505050565b612cf061277b565b73ffffffffffffffffffffffffffffffffffffffff16612d0e611bdf565b73ffffffffffffffffffffffffffffffffffffffff1614612d6d57612d3161277b565b6040517f118cdaa7000000000000000000000000000000000000000000000000000000008152600401612d649190613f19565b60405180910390fd5b565b6000600760009054906101000a900473ffffffffffffffffffffffffffffffffffffffff16905081600760006101000a81548173ffffffffffffffffffffffffffffffffffffffff021916908373ffffffffffffffffffffffffffffffffffffffff1602179055508173ffffffffffffffffffffffffffffffffffffffff168173ffffffffffffffffffffffffffffffffffffffff167f8be0079c531659141344cd1fd0a4f28419497f9722a3daafe3b4186f6b6457e060405160405180910390a35050565b600073ffffffffffffffffffffffffffffffffffffffff168273ffffffffffffffffffffffffffffffffffffffff1603612ea657816040517f5b08ba18000000000000000000000000000000000000000000000000000000008152600401612e9d9190613f19565b60405180910390fd5b80600560008573ffffffffffffffffffffffffffffffffffffffff1673ffffffffffffffffffffffffffffffffffffffff16815260200190815260200160002060008473ffffffffffffffffffffffffffffffffffffffff1673ffffffffffffffffffffffffffffffffffffffff16815260200190815260200160002060006101000a81548160ff0219169083151502179055508173ffffffffffffffffffffffffffffffffffffffff168373ffffffffffffffffffffffffffffffffffffffff167f17307eab39ab6107e8899845ad3d59bd9653f200f220920489ca2b5937696c3183604051612f979190613da8565b60405180910390a3505050565b60008373ffffffffffffffffffffffffffffffffffffffff163b111561314e578273ffffffffffffffffffffffffffffffffffffffff1663150b7a02868685856040518563ffffffff1660e01b8152600401613003949392919061554f565b6020604051808303816000875af192505050801561303f57506040513d601f19601f8201168201806040525081019061303c91906155b0565b60015b6130c3573d806000811461306f576040519150601f19603f3d011682016040523d82523d6000602084013e613074565b606091505b5060008151036130bb57836040517f64a0ae920000000000000000000000000000000000000000000000000000000081526004016130b29190613f19565b60405180910390fd5b805160208201fd5b63150b7a0260e01b7bffffffffffffffffffffffffffffffffffffffffffffffffffffffff1916817bffffffffffffffffffffffffffffffffffffffffffffffffffffffff19161461314c57836040517f64a0ae920000000000000000000000000000000000000000000000000000000081526004016131439190613f19565b60405180910390fd5b505b5050505050565b6060613160826126b6565b506000600660008481526020019081526020016000208054613181906146c2565b80601f01602080910402602001604051908101604052809291908181526020018280546131ad906146c2565b80156131fa5780601f106131cf576101008083540402835291602001916131fa565b820191906000526020600020905b8154815290600101906020018083116131dd57829003601f168201915b50505050509050600061320b6137ea565b90506000815103613220578192505050613263565b60008251111561325557808260405160200161323d9291906155dd565b60405160208183030381529060405292505050613263565b61325e84613801565b925050505b919050565b61328282826040518060200160405280600081525061386a565b5050565b6060600082036132cd576040518060400160405280600181526020017f300000000000000000000000000000000000000000000000000000000000000081525090506133e1565b600082905060005b600082146132ff5780806132e8906148f8565b915050600a826132f89190614f84565b91506132d5565b60008167ffffffffffffffff81111561331b5761331a6141f9565b5b6040519080825280601f01601f19166020018201604052801561334d5781602001600182028036833780820191505090505b5090505b600085146133da576001826133669190615601565b9150600a856133759190615635565b6030613381919061549d565b60f81b81838151811061339757613396615021565b5b60200101907effffffffffffffffffffffffffffffffffffffffffffffffffffffffffffff1916908160001a905350600a856133d39190614f84565b9450613351565b8093505050505b919050565b806006600084815260200190815260200160002090816134069190614c67565b507ff8e1a15aba9398e019f0b49df1a4fde98ee17ae345cb5f6b5e2c27f5033e8ce7826040516134369190613faf565b60405180910390a15050565b60007f80ac58cd000000000000000000000000000000000000000000000000000000007bffffffffffffffffffffffffffffffffffffffffffffffffffffffff1916827bffffffffffffffffffffffffffffffffffffffffffffffffffffffff1916148061350d57507f5b5e139f000000000000000000000000000000000000000000000000000000007bffffffffffffffffffffffffffffffffffffffffffffffffffffffff1916827bffffffffffffffffffffffffffffffffffffffffffffffffffffffff1916145b8061351d575061351c8261388e565b5b9050919050565b60006002600083815260200190815260200160002060009054906101000a900473ffffffffffffffffffffffffffffffffffffffff169050919050565b808061359a5750600073ffffffffffffffffffffffffffffffffffffffff168273ffffffffffffffffffffffffffffffffffffffff1614155b156136ce5760006135aa846126b6565b9050600073ffffffffffffffffffffffffffffffffffffffff168373ffffffffffffffffffffffffffffffffffffffff161415801561361557508273ffffffffffffffffffffffffffffffffffffffff168173ffffffffffffffffffffffffffffffffffffffff1614155b801561362857506136268184612051565b155b1561366a57826040517fa9fbf51f0000000000000000000000000000000000000000000000000000000081526004016136619190613f19565b60405180910390fd5b81156136cc57838573ffffffffffffffffffffffffffffffffffffffff168273ffffffffffffffffffffffffffffffffffffffff167f8c5be1e5ebec7d5bd14f71427d1e84f3dd0314c0f7b2291e5b200ac8c7c3b92560405160405180910390a45b505b836004600085815260200190815260200160002060006101000a81548173ffffffffffffffffffffffffffffffffffffffff021916908373ffffffffffffffffffffffffffffffffffffffff16021790555050505050565b6137318383836138f8565b6137e557600073ffffffffffffffffffffffffffffffffffffffff168373ffffffffffffffffffffffffffffffffffffffff16036137a657806040517f7e27328900000000000000000000000000000000000000000000000000000000815260040161379d9190613faf565b60405180910390fd5b81816040517f177e802f0000000000000000000000000000000000000000000000000000000081526004016137dc929190615432565b60405180910390fd5b505050565b606060405180602001604052806000815250905090565b606061380c826126b6565b5060006138176137ea565b905060008151116138375760405180602001604052806000815250613862565b80613841846139b9565b6040516020016138529291906155dd565b6040516020818303038152906040525b915050919050565b6138748383613a87565b61388961387f61277b565b6000858585612fa4565b505050565b60007f01ffc9a7000000000000000000000000000000000000000000000000000000007bffffffffffffffffffffffffffffffffffffffffffffffffffffffff1916827bffffffffffffffffffffffffffffffffffffffffffffffffffffffff1916149050919050565b60008073ffffffffffffffffffffffffffffffffffffffff168373ffffffffffffffffffffffffffffffffffffffff16141580156139b057508273ffffffffffffffffffffffffffffffffffffffff168473ffffffffffffffffffffffffffffffffffffffff16148061397157506139708484612051565b5b806139af57508273ffffffffffffffffffffffffffffffffffffffff166139978361273e565b73ffffffffffffffffffffffffffffffffffffffff16145b5b90509392505050565b6060600060016139c884613b80565b01905060008167ffffffffffffffff8111156139e7576139e66141f9565b5b6040519080825280601f01601f191660200182016040528015613a195781602001600182028036833780820191505090505b509050600082602083010190505b600115613a7c578080600190039150507f3031323334353637383961626364656600000000000000000000000000000000600a86061a8153600a8581613a7057613a6f614f55565b5b04945060008503613a27575b819350505050919050565b600073ffffffffffffffffffffffffffffffffffffffff168273ffffffffffffffffffffffffffffffffffffffff1603613af95760006040517f64a0ae92000000000000000000000000000000000000000000000000000000008152600401613af09190613f19565b60405180910390fd5b6000613b0783836000612ace565b9050600073ffffffffffffffffffffffffffffffffffffffff168173ffffffffffffffffffffffffffffffffffffffff1614613b7b5760006040517f73c6ac6e000000000000000000000000000000000000000000000000000000008152600401613b729190613f19565b60405180910390fd5b505050565b600080600090507a184f03e93ff9f4daa797ed6e38ed64bf6a1f0100000000000000008310613bde577a184f03e93ff9f4daa797ed6e38ed64bf6a1f0100000000000000008381613bd457613bd3614f55565b5b0492506040810190505b6d04ee2d6d415b85acef81000000008310613c1b576d04ee2d6d415b85acef81000000008381613c1157613c10614f55565b5b0492506020810190505b662386f26fc100008310613c4a57662386f26fc100008381613c4057613c3f614f55565b5b0492506010810190505b6305f5e1008310613c73576305f5e1008381613c6957613c68614f55565b5b0492506008810190505b6127108310613c98576127108381613c8e57613c8d614f55565b5b0492506004810190505b60648310613cbb5760648381613cb157613cb0614f55565b5b0492506002810190505b600a8310613cca576001810190505b80915050919050565b60405180606001604052806000815260200160008152602001600081525090565b6000604051905090565b600080fd5b600080fd5b60007fffffffff0000000000000000000000000000000000000000000000000000000082169050919050565b613d3d81613d08565b8114613d4857600080fd5b50565b600081359050613d5a81613d34565b92915050565b600060208284031215613d7657613d75613cfe565b5b6000613d8484828501613d4b565b91505092915050565b60008115159050919050565b613da281613d8d565b82525050565b6000602082019050613dbd6000830184613d99565b92915050565b600081519050919050565b600082825260208201905092915050565b60005b83811015613dfd578082015181840152602081019050613de2565b60008484015250505050565b6000601f19601f8301169050919050565b6000613e2582613dc3565b613e2f8185613dce565b9350613e3f818560208601613ddf565b613e4881613e09565b840191505092915050565b60006020820190508181036000830152613e6d8184613e1a565b905092915050565b6000819050919050565b613e8881613e75565b8114613e9357600080fd5b50565b600081359050613ea581613e7f565b92915050565b600060208284031215613ec157613ec0613cfe565b5b6000613ecf84828501613e96565b91505092915050565b600073ffffffffffffffffffffffffffffffffffffffff82169050919050565b6000613f0382613ed8565b9050919050565b613f1381613ef8565b82525050565b6000602082019050613f2e6000830184613f0a565b92915050565b613f3d81613ef8565b8114613f4857600080fd5b50565b600081359050613f5a81613f34565b92915050565b60008060408385031215613f7757613f76613cfe565b5b6000613f8585828601613f4b565b9250506020613f9685828601613e96565b9150509250929050565b613fa981613e75565b82525050565b6000602082019050613fc46000830184613fa0565b92915050565b6000606082019050613fdf6000830186613fa0565b613fec6020830185613fa0565b613ff96040830184613fa0565b949350505050565b60008060006060848603121561401a57614019613cfe565b5b600061402886828701613f4b565b935050602061403986828701613f4b565b925050604061404a86828701613e96565b9150509250925092565b600081519050919050565b600082825260208201905092915050565b6000819050602082019050919050565b600082825260208201905092915050565b600061409c82613dc3565b6140a68185614080565b93506140b6818560208601613ddf565b6140bf81613e09565b840191505092915050565b60006140d68383614091565b905092915050565b6000602082019050919050565b60006140f682614054565b614100818561405f565b93508360208202850161411285614070565b8060005b8581101561414e578484038952815161412f85826140ca565b945061413a836140de565b925060208a01995050600181019050614116565b50829750879550505050505092915050565b6000602082019050818103600083015261417a81846140eb565b905092915050565b60006020828403121561419857614197613cfe565b5b60006141a684828501613f4b565b91505092915050565b600080604083850312156141c6576141c5613cfe565b5b60006141d485828601613e96565b92505060206141e585828601613e96565b9150509250929050565b600080fd5b600080fd5b7f4e487b7100000000000000000000000000000000000000000000000000000000600052604160045260246000fd5b61423182613e09565b810181811067ffffffffffffffff821117156142505761424f6141f9565b5b80604052505050565b6000614263613cf4565b905061426f8282614228565b919050565b600067ffffffffffffffff82111561428f5761428e6141f9565b5b61429882613e09565b9050602081019050919050565b82818337600083830152505050565b60006142c76142c284614274565b614259565b9050828152602081018484840111156142e3576142e26141f4565b5b6142ee8482856142a5565b509392505050565b600082601f83011261430b5761430a6141ef565b5b813561431b8482602086016142b4565b91505092915050565b6000806040838503121561433b5761433a613cfe565b5b600061434985828601613e96565b925050602083013567ffffffffffffffff81111561436a57614369613d03565b5b614376858286016142f6565b9150509250929050565b61438981613d8d565b811461439457600080fd5b50565b6000813590506143a681614380565b92915050565b600080604083850312156143c3576143c2613cfe565b5b60006143d185828601613f4b565b92505060206143e285828601614397565b9150509250929050565b600067ffffffffffffffff821115614407576144066141f9565b5b61441082613e09565b9050602081019050919050565b600061443061442b846143ec565b614259565b90508281526020810184848401111561444c5761444b6141f4565b5b6144578482856142a5565b509392505050565b600082601f830112614474576144736141ef565b5b813561448484826020860161441d565b91505092915050565b600080600080608085870312156144a7576144a6613cfe565b5b60006144b587828801613f4b565b94505060206144c687828801613f4b565b93505060406144d787828801613e96565b925050606085013567ffffffffffffffff8111156144f8576144f7613d03565b5b6145048782880161445f565b91505092959194509250565b61451981613e75565b82525050565b6060820160008201516145356000850182614510565b5060208201516145486020850182614510565b50604082015161455b6040850182614510565b50505050565b6000606082019050614576600083018461451f565b92915050565b6000806040838503121561459357614592613cfe565b5b60006145a185828601613f4b565b92505060206145b285828601613f4b565b9150509250929050565b600080604083850312156145d3576145d2613cfe565b5b60006145e185828601613e96565b92505060206145f285828601613f4b565b9150509250929050565b600080600080600060a0868803121561461857614617613cfe565b5b600061462688828901613f4b565b955050602086013567ffffffffffffffff81111561464757614646613d03565b5b614653888289016142f6565b945050604061466488828901613e96565b935050606061467588828901613e96565b925050608061468688828901613e96565b9150509295509295909350565b7f4e487b7100000000000000000000000000000000000000000000000000000000600052602260045260246000fd5b600060028204905060018216806146da57607f821691505b6020821081036146ed576146ec614693565b5b50919050565b7f50657420646f6573206e6f742065786973740000000000000000000000000000600082015250565b6000614729601283613dce565b9150614734826146f3565b602082019050919050565b600060208201905081810360008301526147588161471c565b9050919050565b7f4e6f7420617574686f72697a65643a206f776e6572206f72207472696265206d60008201527f656d626572207265717569726564000000000000000000000000000000000000602082015250565b60006147bb602e83613dce565b91506147c68261475f565b604082019050919050565b600060208201905081810360008301526147ea816147ae565b9050919050565b7f54726962652070617274696369706174696f6e20746f6f206c6f770000000000600082015250565b6000614827601b83613dce565b9150614832826147f1565b602082019050919050565b600060208201905081810360008301526148568161481a565b9050919050565b7f496e73756666696369656e74206865616c746820666f72206c6576656c207570600082015250565b6000614893602083613dce565b915061489e8261485d565b602082019050919050565b600060208201905081810360008301526148c281614886565b9050919050565b7f4e487b7100000000000000000000000000000000000000000000000000000000600052601160045260246000fd5b600061490382613e75565b91507fffffffffffffffffffffffffffffffffffffffffffffffffffffffffffffffff8203614935576149346148c9565b5b600182019050919050565b600081905092915050565b50565b600061495b600083614940565b91506149668261494b565b600082019050919050565b600061497c8261494e565b9150819050919050565b7f455448207472616e73666572206661696c656400000000000000000000000000600082015250565b60006149bc601383613dce565b91506149c782614986565b602082019050919050565b600060208201905081810360008301526149eb816149af565b9050919050565b6000606082019050614a076000830186613f0a565b614a146020830185613fa0565b614a216040830184613f0a565b949350505050565b7f4e6f7420617574686f72697a656420746f20757067726164652074686973207060008201527f6574000000000000000000000000000000000000000000000000000000000000602082015250565b6000614a85602283613dce565b9150614a9082614a29565b604082019050919050565b60006020820190508181036000830152614ab481614a78565b9050919050565b60008190508160005260206000209050919050565b60006020601f8301049050919050565b600082821b905092915050565b600060088302614b1d7fffffffffffffffffffffffffffffffffffffffffffffffffffffffffffffffff82614ae0565b614b278683614ae0565b95508019841693508086168417925050509392505050565b6000819050919050565b6000614b64614b5f614b5a84613e75565b614b3f565b613e75565b9050919050565b6000819050919050565b614b7e83614b49565b614b92614b8a82614b6b565b848454614aed565b825550505050565b600090565b614ba7614b9a565b614bb2818484614b75565b505050565b5b81811015614bd657614bcb600082614b9f565b600181019050614bb8565b5050565b601f821115614c1b57614bec81614abb565b614bf584614ad0565b81016020851015614c04578190505b614c18614c1085614ad0565b830182614bb7565b50505b505050565b600082821c905092915050565b6000614c3e60001984600802614c20565b1980831691505092915050565b6000614c578383614c2d565b9150826002028217905092915050565b614c7082613dc3565b67ffffffffffffffff811115614c8957614c886141f9565b5b614c9382546146c2565b614c9e828285614bda565b600060209050601f831160018114614cd15760008415614cbf578287015190505b614cc98582614c4b565b865550614d31565b601f198416614cdf86614abb565b60005b82811015614d0757848901518255600182019150602085019450602081019050614ce2565b86831015614d245784890151614d20601f891682614c2d565b8355505b6001600288020188555050505b505050505050565b7f50455420746f6b656e206e6f7420736574000000000000000000000000000000600082015250565b6000614d6f601183613dce565b9150614d7a82614d39565b602082019050919050565b60006020820190508181036000830152614d9e81614d62565b9050919050565b7f4c6576656c20746f6f206c6f7700000000000000000000000000000000000000600082015250565b6000614ddb600d83613dce565b9150614de682614da5565b602082019050919050565b60006020820190508181036000830152614e0a81614dce565b9050919050565b7f496e76616c696420616d6f756e74000000000000000000000000000000000000600082015250565b6000614e47600e83613dce565b9150614e5282614e11565b602082019050919050565b60006020820190508181036000830152614e7681614e3a565b9050919050565b7f4e6f207472696265206d656d6265727300000000000000000000000000000000600082015250565b6000614eb3601083613dce565b9150614ebe82614e7d565b602082019050919050565b60006020820190508181036000830152614ee281614ea6565b9050919050565b7f504554206e6f7420736574000000000000000000000000000000000000000000600082015250565b6000614f1f600b83613dce565b9150614f2a82614ee9565b602082019050919050565b60006020820190508181036000830152614f4e81614f12565b9050919050565b7f4e487b7100000000000000000000000000000000000000000000000000000000600052601260045260246000fd5b6000614f8f82613e75565b9150614f9a83613e75565b925082614faa57614fa9614f55565b5b828204905092915050565b7f416d6f756e7420746f6f20736d616c6c00000000000000000000000000000000600082015250565b6000614feb601083613dce565b9150614ff682614fb5565b602082019050919050565b6000602082019050818103600083015261501a81614fde565b9050919050565b7f4e487b7100000000000000000000000000000000000000000000000000000000600052603260045260246000fd5b60006060820190506150656000830186613f0a565b6150726020830185613f0a565b61507f6040830184613fa0565b949350505050565b60008151905061509681614380565b92915050565b6000602082840312156150b2576150b1613cfe565b5b60006150c084828501615087565b91505092915050565b7f5472616e73666572206661696c65640000000000000000000000000000000000600082015250565b60006150ff600f83613dce565b915061510a826150c9565b602082019050919050565b6000602082019050818103600083015261512e816150f2565b9050919050565b7f4e6f2045544820746f2077697468647261770000000000000000000000000000600082015250565b600061516b601283613dce565b915061517682615135565b602082019050919050565b6000602082019050818103600083015261519a8161515e565b9050919050565b7f455448207769746864726177616c206661696c65640000000000000000000000600082015250565b60006151d7601583613dce565b91506151e2826151a1565b602082019050919050565b60006020820190508181036000830152615206816151ca565b9050919050565b7f54726962652069732066756c6c00000000000000000000000000000000000000600082015250565b6000615243600d83613dce565b915061524e8261520d565b602082019050919050565b6000602082019050818103600083015261527281615236565b9050919050565b7f416c726561647920696e20747269626500000000000000000000000000000000600082015250565b60006152af601083613dce565b91506152ba82615279565b602082019050919050565b600060208201905081810360008301526152de816152a2565b9050919050565b600081905092915050565b7f697066733a2f2f516d506c616365686f6c646572486173682f00000000000000600082015250565b60006153266019836152e5565b9150615331826152f0565b601982019050919050565b600061534782613dc3565b61535181856152e5565b9350615361818560208601613ddf565b80840191505092915050565b7f2e6a736f6e000000000000000000000000000000000000000000000000000000600082015250565b60006153a36005836152e5565b91506153ae8261536d565b600582019050919050565b60006153c482615319565b91506153d0828461533c565b91506153db82615396565b915081905092915050565b600060808201905081810360008301526154008187613e1a565b905061540f6020830186613fa0565b61541c6040830185613fa0565b6154296060830184613fa0565b95945050505050565b60006040820190506154476000830185613f0a565b6154546020830184613fa0565b9392505050565b600061546682613e75565b915061547183613e75565b925082820261547f81613e75565b91508282048414831517615496576154956148c9565b5b5092915050565b60006154a882613e75565b91506154b383613e75565b92508282019050808211156154cb576154ca6148c9565b5b92915050565b60006040820190506154e66000830185613fa0565b6154f36020830184613fa0565b9392505050565b600081519050919050565b600082825260208201905092915050565b6000615521826154fa565b61552b8185615505565b935061553b818560208601613ddf565b61554481613e09565b840191505092915050565b60006080820190506155646000830187613f0a565b6155716020830186613f0a565b61557e6040830185613fa0565b81810360608301526155908184615516565b905095945050505050565b6000815190506155aa81613d34565b92915050565b6000602082840312156155c6576155c5613cfe565b5b60006155d48482850161559b565b91505092915050565b60006155e9828561533c565b91506155f5828461533c565b91508190509392505050565b600061560c82613e75565b915061561783613e75565b925082820390508181111561562f5761562e6148c9565b5b92915050565b600061564082613e75565b915061564b83613e75565b92508261565b5761565a614f55565b5b82820690509291505056fea264697066735822122033e71cc7667a1bf1075644722563a9518633fda5143deb3364e56da7b7ff8e2064736f6c63430008140033",
  "linkReferences": {},
  "deployedLinkReferences": {}
}